:020000040800F2
:1000000000000220F549000841350008433500088A
:100010004535000847350008493500080000000054
:100020000000000000000000000000004B35000848
:100030004D350008000000004F350008513500081C
:10004000454A0008454A0008454A0008454A000854
:10005000454A0008454A0008454A0008454A000844
:10006000454A0008454A0008454A0008454A000834
:10007000454A0008454A0008454A00085935000825
:10008000454A0008454A0008454A000800000000AB
:10009000000000000000000000000000454A0008C9
:1000A000454A0008454A0008454A0008454A0008F4
:1000B000454A0008454A0008454A0008454A0008E4
:1000C000454A0008454A0008454A0008454A0008D4
:1000D000454A0008454A0008454A0008000000005B
:1000E000454A0008454A0008454A0008000000004B
:1000F000000000000000000000000000454A000869
:1001000000000000454A0008454A0008454A00082A
:1001100000000000000000000000000000000000DF
:10012000454A0008454A0008454A0008454A000873
:10013000454A000800000000000000000000000028
:10014000000000000000000000000000454A000818
:10015000454A0008454A0008454A0008454A000843
:10016000454A0008454A0008000000000000000061
:10017000000000000000000000000000000000007F
:1001800000000000454A00080000000000000000D8
:08019000454A0008454A000839
:1001C00010B5054C237833B9044B13B10448AFF391
:1001D00000800123237010BD480B002000000000A8
:1001E0008CA9000808B5034B1BB103490348AFF3C2
:1001F000008008BD000000004C0B00208CA9000806
:1002000053B94AB9002908BF00281CBF4FF0FF317D
:100210004FF0FF3000F074B9ADF1080C6DE904CE79
:1002200000F006F8DDF804E0DDE9022304B07047D1
:100230002DE9F047089E0D4604468846002B4DD117
:100240008A42944668D9B2FA82F252B101FA02F3B4
:10025000C2F1200120FA01F10CFA02FC41EA030884
:1002600094404FEA1C45210CB8FBF5FE1FFA8CF7B1
:1002700005FB1E8341EA03430EFB07F199420BD9AC
:100280001CEB03030EF1FF3080F01E81994240F217
:100290001B81AEF1020E63445B1AA4B2B3FBF5F00E
:1002A00005FB103344EA034400FB07F7A7420AD9D1
:1002B0001CEB040400F1FF3380F00881A74240F2F8
:1002C000058164440238E41B40EA0E4000211EB15F
:1002D000D4400023C6E90043BDE8F0878B4208D92B
:1002E000002E00F0EE800021C6E900050846BDE8BA
:1002F000F087B3FA83F100294AD1AB4202D382429C
:1003000000F2F980841A65EB030301209846002E61
:10031000E2D0C6E90048DFE702B9FFDEB2FA82F2B6
:10032000002A40F09180A1EB0C054FEA1C471FFA10
:100330008CFE0121B5FBF7F307FB1350250C45EAB2
:1003400000450EFB03F0A84208D91CEB050503F19C
:10035000FF3802D2A84200F2CB8043462D1AA4B245
:10036000B5FBF7F007FB105544EA05440EFB00FE11
:10037000A64508D91CEB040400F1FF3502D2A645BE
:1003800000F2BB802846A4EB0E0440EA03409EE73F
:10039000C1F120078B4022FA07FC4CEA030C20FA3B
:1003A00007F405FA01F31C43FD404FEA1C4900FA2B
:1003B00001F3B5FBF9F8200C1FFA8CFE09FB185568
:1003C00040EA054508FB0EF0A84202FA01F20BD9FB
:1003D0001CEB050508F1FF3A80F08880A84240F246
:1003E0008580A8F1020865442D1AA4B2B5FBF9F086
:1003F00009FB105544EA054500FB0EFEAE4508D941
:100400001CEB050500F1FF346CD2AE456AD9023809
:10041000654440EA0840A0FB0294A5EB0E05A54206
:10042000C846A64656D353D05EB1B3EB080265EB7F
:100430000E0505FA07F722FA01F3CD401F43C6E97E
:1004400000750021BDE8F087C2F1200320FA03F116
:100450000CFA02FC25FA03F395400D434FEA1C47C2
:100460001FFA8CFEB3FBF7F107FB11302B0C43EAAC
:10047000004301FB0EF0984204FA02F408D91CEB89
:10048000030301F1FF382FD298422DD9023963447A
:100490001B1AADB2B3FBF7F007FB103345EA034577
:1004A00000FB0EF3AB4208D91CEB050500F1FF3849
:1004B00016D2AB4214D902386544ED1A40EA014124
:1004C00038E73146304607E78646E5E61846FAE65D
:1004D0004B45A9D2B9EB020864EB0C0E0138A3E737
:1004E0004046EAE7204694E74146D1E7D0467BE71D
:1004F000023B654432E7084609E76444023842E7B4
:10050000704700BF00000000000000000000000075
:1005100001F0FF01102A2BDB10F0070F08D010F8B4
:10052000013B013A8B422DD010F0070F42B3F6D1B8
:10053000F0B441EA012141EA014122F007047FF0D1
:1005400000070023F0E80256083C85EA010586EA28
:10055000010685FA47F5A3FA87F586FA47F6A5FA64
:1005600087F68EB9EED1F0BC01F0FF0102F0070270
:1005700032B110F8013B013A83EA010313B1F8D11B
:100580000020704701387047002D06BF35460338FC
:10059000073815F0010F07D1013015F4807F02BF35
:1005A000013015F4C03F0130F0BC0138704700BF86
:1005B000844641EA000313F003036DD1403A41D36E
:1005C00051F8043B40F8043B51F8043B40F8043B2D
:1005D00051F8043B40F8043B51F8043B40F8043B1D
:1005E00051F8043B40F8043B51F8043B40F8043B0D
:1005F00051F8043B40F8043B51F8043B40F8043BFD
:1006000051F8043B40F8043B51F8043B40F8043BEC
:1006100051F8043B40F8043B51F8043B40F8043BDC
:1006200051F8043B40F8043B51F8043B40F8043BCC
:1006300051F8043B40F8043B51F8043B40F8043BBC
:10064000403ABDD2303211D351F8043B40F8043B5C
:1006500051F8043B40F8043B51F8043B40F8043B9C
:1006600051F8043B40F8043B103AEDD20C3205D36C
:1006700051F8043B40F8043B043AF9D2043208D064
:10068000D2071CBF11F8013B00F8013B01D30B88D6
:1006900003806046704700BF082A13D38B078DD0B4
:1006A00010F003038AD0C3F10403D21ADB071CBF86
:1006B00011F8013B00F8013B80D331F8023B20F8F0
:1006C000023B7BE7043AD9D3013A11F8013B00F829
:1006D000013BF9D20B7803704B7843708B788370B1
:1006E00060467047000000000000000000000000AD
:1006F00000000000000000000000000000000000FA
:1007000090F800F06DE9024520F007016FF0000C51
:1007100010F0070491F820F040F049804FF00004F9
:100720006FF00700D1E9002391F840F000F10800D4
:1007300082FA4CF2A4FA8CF283FA4CF3A2FA8CF30C
:100740004BBBD1E9022382FA4CF200F10800A4FA73
:100750008CF283FA4CF3A2FA8CF3E3B9D1E90423C7
:1007600082FA4CF200F10800A4FA8CF283FA4CF3FE
:10077000A2FA8CF37BB9D1E9062301F1200182FAB8
:100780004CF200F10800A4FA8CF283FA4CF3A2FABE
:100790008CF3002BC6D0002A04BF04301A4612BACC
:1007A000B2FA82F2FDE8024500EBD2007047D1E9CF
:1007B000002304F00305C4F100004FEAC50514F05E
:1007C000040F91F840F00CFA05F562EA05021CBF2F
:1007D00063EA050362464FF00004A9E781F0004197
:1007E00002E000BF83F0004330B54FEA41044FEA16
:1007F000430594EA050F08BF90EA020F1FBF54EAB1
:10080000000C55EA020C7FEA645C7FEA655C00F04C
:10081000E2804FEA5454D4EB5555B8BF6D420CDD1D
:100820002C4480EA020281EA030382EA000083EAA0
:10083000010180EA020281EA0303362D88BF30BD40
:1008400011F0004F4FEA01314FF4801C4CEA113196
:1008500002D0404261EB410113F0004F4FEA0333F5
:100860004CEA133302D0524263EB430394EA050F80
:1008700000F0A780A4F10104D5F1200E0DDB02FAEF
:100880000EFC22FA05F2801841F1000103FA0EF283
:10089000801843FA05F359410EE0A5F120050EF149
:1008A000200E012A03FA0EFC28BF4CF0020C43FA7A
:1008B00005F3C01851EBE37101F0004507D54FF087
:1008C000000EDCF1000C7EEB00006EEB0101B1F5D7
:1008D000801F1BD3B1F5001F0CD349085FEA30001D
:1008E0004FEA3C0C04F101044FEA445212F5800F28
:1008F00080F09A80BCF1004F08BF5FEA500C50F1C5
:10090000000041EB045141EA050130BD5FEA4C0CA7
:10091000404141EB0101013C28BFB1F5801FE9D204
:1009200091F0000F04BF01460020B1FA81F308BF27
:100930002033A3F10B03B3F120020CDA0C3208DDF3
:1009400002F1140CC2F10C0201FA0CF021FA02F1CE
:100950000CE002F11402D8BFC2F1200C01FA02F13E
:1009600020FA0CFCDCBF41EA0C019040E41AA2BF63
:1009700001EB0451294330BD6FEA04041F3C1CDA2B
:100980000C340EDC04F11404C4F1200220FA04F04B
:1009900001FA02F340EA030021FA04F345EA0301F5
:1009A00030BDC4F10C04C4F1200220FA02F001FAB7
:1009B00004F340EA0300294630BD21FA04F0294639
:1009C00030BD94F0000F83F4801306BF81F48011D2
:1009D0000134013D4EE77FEA645C18BF7FEA655C45
:1009E00029D094EA050F08BF90EA020F05D054EA17
:1009F000000C04BF1946104630BD91EA030F1EBF1C
:100A00000021002030BD5FEA545C05D1400049411F
:100A100028BF41F0004130BD14F580043CBF01F512
:100A2000801130BD01F0004545F0FE4141F47001F8
:100A30004FF0000030BD7FEA645C1ABF19461046D3
:100A40007FEA655C1CBF0B46024650EA013406BFD4
:100A500052EA033591EA030F41F4002130BD00BF93
:100A600090F0000F04BF0021704730B54FF4806450
:100A700004F132044FF000054FF0000150E700BFD1
:100A800090F0000F04BF0021704730B54FF4806430
:100A900004F1320410F0004548BF40424FF000011D
:100AA0003EE700BF42004FEAE2014FEA31014FEA60
:100AB00002701FBF12F07F4393F07F4F81F06051AF
:100AC000704732F07F4208BF704793F07F4F04BFFA
:100AD00041F40021704730B54FF4607401F00045D7
:100AE00021F000411CE700BF50EA010208BF704737
:100AF00030B54FF000050AE050EA010208BF704728
:100B000030B511F0004502D5404261EB41014FF490
:100B1000806404F132045FEA915C3FF4D8AE4FF098
:100B200003025FEADC0C18BF03325FEADC0C18BF7B
:100B3000033202EBDC02C2F1200300FA03FC20FACC
:100B400002F001FA03FE40EA0E0021FA02F1144419
:100B5000BDE600BF70B54FF0FF0C4CF4E06C1CEA32
:100B600011541DBF1CEA135594EA0C0F95EA0C0FA3
:100B700000F0DEF82C4481EA030621EA4C5123EA16
:100B80004C5350EA013518BF52EA033541F4801145
:100B900043F4801338D0A0FB02CE4FF00005E1FBF8
:100BA00002E506F00042E0FB03E54FF00006E1FB42
:100BB00003569CF0000F18BF4EF0010EA4F1FF0485
:100BC000B6F5007F64F5407404D25FEA4E0E6D41C5
:100BD00046EB060642EAC62141EA55514FEAC520D6
:100BE00040EA5E504FEACE2EB4F1FD0C88BFBCF552
:100BF000E06F1ED8BEF1004F08BF5FEA500E50F103
:100C0000000041EB045170BD06F0004646EA0101C8
:100C100040EA020081EA0301B4EB5C04C2BFD4EBFA
:100C20000C0541EA045170BD41F480114FF0000EF3
:100C3000013C00F3AB8014F1360FDEBF002001F061
:100C4000004170BDC4F10004203C35DA0C341BDCDB
:100C500004F11404C4F1200500FA05F320FA04F0AD
:100C600001FA05F240EA020001F0004221F00041E1
:100C700010EBD37021FA04F642EB06015EEA430E54
:100C800008BF20EAD37070BDC4F10C04C4F1200584
:100C900000FA04F320FA05F001FA04F240EA020037
:100CA00001F0004110EBD37041F100015EEA430E08
:100CB00008BF20EAD37070BDC4F1200500FA05F228
:100CC0004EEA020E20FA04F301FA05F243EA0203A7
:100CD00021FA04F001F0004121FA04F220EA0200B6
:100CE00000EBD3705EEA430E08BF20EAD37070BDFC
:100CF00094F0000F0FD101F00046400041EB0101DC
:100D000011F4801F08BF013CF7D041EA060195F0BD
:100D1000000F18BF704703F00046520043EB030377
:100D200013F4801F08BF013DF7D043EA0603704764
:100D300094EA0C0F0CEA135518BF95EA0C0F0CD06F
:100D400050EA410618BF52EA4306D1D181EA0301B5
:100D500001F000414FF0000070BD50EA410606BFAF
:100D60001046194652EA430619D094EA0C0F02D1F4
:100D700050EA013613D195EA0C0F05D152EA033639
:100D80001CBF104619460AD181EA030101F0004157
:100D900041F0FE4141F470014FF0000070BD41F0A0
:100DA000FE4141F4780170BD70B54FF0FF0C4CF47A
:100DB000E06C1CEA11541DBF1CEA135594EA0C0F99
:100DC00095EA0C0F00F0A7F8A4EB050481EA030EE6
:100DD00052EA03354FEA013100F088804FEA0333CD
:100DE0004FF0805545EA131343EA12634FEA02229B
:100DF00045EA111545EA10654FEA00260EF000415C
:100E00009D4208BF964244F1FD0404F5407402D2AD
:100E10005B084FEA3202B61A65EB03055B084FEA3E
:100E200032024FF480104FF4002CB6EB020E75EB3B
:100E3000030E22BFB61A754640EA0C005B084FEA63
:100E40003202B6EB020E75EB030E22BFB61A7546E0
:100E500040EA5C005B084FEA3202B6EB020E75EB2B
:100E6000030E22BFB61A754640EA9C005B084FEAA3
:100E70003202B6EB020E75EB030E22BFB61A7546B0
:100E800040EADC0055EA060E18D04FEA051545EA9F
:100E900016754FEA06164FEAC30343EA52734FEA48
:100EA000C2025FEA1C1CC0D111F4801F0BD141EAC1
:100EB00000014FF000004FF0004CB6E711F4801F26
:100EC00004BF01430020B4F1FD0C88BFBCF5E06F06
:100ED0003FF6AFAEB5EB030C04BFB6EB020C5FEA16
:100EE000500C50F1000041EB045170BD0EF0004E6B
:100EF0004EEA113114EB5C04C2BFD4EB0C0541EA9D
:100F0000045170BD41F480114FF0000E013C90E699
:100F100045EA060E8DE60CEA135594EA0C0F08BF5D
:100F200095EA0C0F3FF43BAF94EA0C0F0AD150EA5C
:100F300001347FF434AF95EA0C0F7FF425AF1046EF
:100F400019462CE795EA0C0F06D152EA03353FF417
:100F5000FDAE1046194622E750EA410618BF52EA94
:100F600043067FF4C5AE50EA41047FF40DAF52EA68
:100F700043057FF4EBAE12E74FF0FF3C06E000BF05
:100F80004FF0010C02E000BF4FF0010C4DF804CD12
:100F90004FEA410C7FEA6C5C4FEA430C18BF7FEAD2
:100FA0006C5C1BD001B050EA410C0CBF52EA430C00
:100FB00091EA030F02BF90EA020F0020704710F180
:100FC000000F91EA030F58BF994208BF90422CBF0F
:100FD000D8176FEAE37040F0010070474FEA410C08
:100FE0007FEA6C5C02D150EA013C07D14FEA430C26
:100FF0007FEA6C5CD6D152EA033CD3D05DF8040B97
:10100000704700BF8446104662468C4619466346C8
:1010100000E000BF01B5FFF7B7FF002848BF10F19F
:10102000000F01BD4DF808EDFFF7F4FF0CBF0120E4
:1010300000205DF808FB00BF4DF808EDFFF7EAFF60
:1010400034BF012000205DF808FB00BF4DF808ED1B
:10105000FFF7E0FF94BF012000205DF808FB00BF10
:101060004DF808EDFFF7CEFF94BF012000205DF89A
:1010700008FB00BF4DF808EDFFF7C4FF34BF0120A7
:1010800000205DF808FB00BF4FEA410C7FEA6C5C72
:1010900002D150EA013C0AD14FEA430C7FEA6C5C72
:1010A00002D152EA033C02D14FF0000070474FF0EA
:1010B000010070474FEA410212F5001215D211D516
:1010C0006FF47873B3EB625212D94FEAC12343F045
:1010D000004343EA505311F0004F23FA02F018BFC7
:1010E000404270474FF00000704750EA013005D190
:1010F00011F0004008BF6FF0004070474FF0000053
:10110000704700BF38B505460B4C00224FF4806194
:10111000204602F011FE00224FF48071204602F0BA
:101120000BFE284602F0F0F801224FF480612046C1
:1011300002F002FE38BD00BF0000024038B505468F
:101140000B4C00224FF48061204602F0F5FD012295
:101150004FF48071204602F0EFFD284602F0D4F8EB
:1011600001224FF48061204602F0E6FD38BD00BF49
:1011700000000240F8B507460D4616461C462A20D8
:10118000FFF7C0FF380AFFF7D9FFF8B2FFF7D6FF25
:10119000300AFFF7D3FFF0B2FFF7D0FF2B20FFF7A5
:1011A000B1FF280AFFF7CAFFE8B2FFF7C7FF200A1E
:1011B000FFF7C4FFE0B2FFF7C1FF2C20FFF7A2FF4B
:1011C000F8BD000038B50546F0234FF4A0720021A9
:1011D0000846FFF7CFFF2C20FFF794FF0E4C0022AC
:1011E0004FF48061204602F0A7FD01224FF4807188
:1011F000204602F0A1FD002403E0284602F096F804
:101200000134B4F5963FF8DB01224FF480610248C7
:1012100002F092FD38BD00BF0000024010B59E4CA8
:1012200000224FF40071204602F086FD642002F097
:1012300067FA01224FF40071204602F07DFD322052
:1012400002F05EFACF20FFF75DFF0020FFF776FF88
:10125000D920FFF773FF3020FFF770FFED20FFF775
:1012600051FF6420FFF76AFF0320FFF767FF12209A
:10127000FFF764FF8120FFF761FFE820FFF742FFDF
:101280008520FFF75BFF1020FFF758FF7A20FFF75C
:1012900055FFCB20FFF736FF3920FFF74FFF2C20FB
:1012A000FFF74CFF0020FFF749FF3420FFF746FF10
:1012B0000220FFF743FFF720FFF724FF2020FFF76E
:1012C0003DFFEA20FFF71EFF0020FFF737FF002059
:1012D000FFF734FFC020FFF715FF1B20FFF72EFF9D
:1012E000C120FFF70FFF1220FFF728FFC520FFF7EF
:1012F00009FF0820FFF722FF2620FFF71FFFC72066
:10130000FFF700FFB720FFF719FF3620FFF7FAFEBF
:101310000820FFF713FF3A20FFF7F4FE5520FFF7F0
:101320000DFFB120FFF7EEFE0020FFF707FF1A20A8
:10133000FFF704FFB620FFF7E5FE0A20FFF7FEFEE9
:10134000A220FFF7FBFEF220FFF7DCFE0020FFF7F4
:10135000F5FE2620FFF7D6FE0120FFF7EFFEE02086
:10136000FFF7D0FE0F20FFF7E9FE1D20FFF7E6FE96
:101370001A20FFF7E3FE0A20FFF7E0FE0D20FFF73B
:10138000DDFE0720FFF7DAFE4920FFF7D7FE6620D3
:10139000FFF7D4FE3B20FFF7D1FE0720FFF7CEFE7C
:1013A0001120FFF7CBFE0120FFF7C8FE0920FFF751
:1013B000C5FE0520FFF7C2FE0420FFF7BFFEE120B7
:1013C000FFF7A0FE0020FFF7B9FE1820FFF7B6FEDA
:1013D0001D20FFF7B3FE0220FFF7B0FE0F20FFF73E
:1013E000ADFE0420FFF7AAFE3620FFF7A7FE13206C
:1013F000FFF7A4FE4C20FFF7A1FE0720FFF79EFE9B
:101400001320FFF79BFE0F20FFF798FE2E20FFF71B
:1014100095FE2F20FFF792FE0520FFF78FFE2B2071
:10142000FFF770FE0020FFF789FE0020FFF786FE21
:101430000120FFF783FE3F20FFF780FE2A20FFF701
:1014400061FE0020FFF77AFE0020FFF777FE002004
:10145000FFF774FEEF20FFF771FE1120FFF752FE39
:10146000782002F04DF92920FFF74CFE782002F099
:1014700047F9F0234FF4A07200210846FFF77AFEE7
:101480003620FFF73FFEAC20FFF758FE4FF6FF7007
:10149000FFF798FE10BD00BF0000024038B50546BA
:1014A0000B4C00224FF48061204602F045FC0122E3
:1014B0004FF48071204602F03FFC284601F036FFD1
:1014C00001224FF48061204602F036FC38BD00BF97
:1014D0000000024030B583B00546002420E004EB54
:1014E0004403E918EA568DF8042091F901308DF88B
:1014F000053091F802C091F902108DF80610C3F37F
:101500008700C00200F4FC30C2F3C702520102F4AB
:101510007872104340EADC0080B2FFF7BFFF01346D
:10152000FF2CDCDD03B030BD70B58AB0002405941B
:1015300006940794089409940194294B1A6B42F07D
:1015400080021A631A6B02F080020192019A0294DF
:101550001A6B42F001021A631A6B02F00102029246
:10156000029A03941A6B42F002021A631A6B02F099
:1015700002020392039A04941A6B42F004021A6363
:101580001B6B03F004030493049B164E01221021ED
:10159000304602F0D1FB22464FF44071304602F053
:1015A000CBFB40F21173059301250695079408942F
:1015B00005A9304602F0E0FA0595069407950894CF
:1015C00005A9304602F0D8FA4FF40053059306956A
:1015D0000794089405A9044802F0CEFA0AB070BD39
:1015E00000380240000002400008024000B583B00D
:1015F00000210191094B1A6B42F400121A631B6B14
:1016000003F400130193019B0A460F2002F09EF899
:101610000F2002F0D3F803B05DF804FB003802405D
:1016200072B6FEE700B595B03022002108A803F09D
:10163000E5FC00230393049305930693079301931A
:101640001F4A116C41F080511164126C02F08052FB
:101650000192019A02931B4B1A6842F440421A60AD
:101660001B6803F440430293029B012308934FF449
:101670008033099302230E934FF480020F920C22C1
:1016800010926022119212930423139308A802F07F
:1016900059FB88B90F230393022304930023059376
:1016A0004FF4805206920793032103A802F098FD9D
:1016B00020B915B05DF804FBFFF7B2FFFFF7B0FFEC
:1016C000003802400070004008B501F0EDFFFFF760
:1016D000A9FFFFF729FFFFF789FF01F03BFE01F0AB
:1016E00091FFFFF79BFD01F0B5FDFEE770B50C46DD
:1016F0001646002504E014F8010B01F09DFF0135AA
:10170000B542F8D1304670BD084100F00100704785
:1017100029B10123934002781A43027070470123D4
:101720009340027822EA030202707047B0F5004F3E
:1017300002DA034B18567047024BC05C40B2704748
:10174000640B002010800108014B1870704700BF27
:1017500003000020014B1870704700BF6813002081
:1017600008B50721FFF7D0FF014B187008BD00BF77
:1017700069130020B0FA80F04009014B18707047DF
:101780006B13002010B50446FFF7EAFF2046FFF771
:10179000F1FF10BD014B1870704700BF6A130020A5
:1017A000B0F5005F04DBA0F50050054B18567047FC
:1017B000044B1A68044B1344C05C40B2704700BF2E
:1017C0006C1300207834002010000208A0F57C5330
:1017D0009BB2FF2B08D801F03F01B0F57C5F08D029
:1017E00043F61073984208D0A0F50050054B1954E9
:1017F0007047054B83F8101FF6E7034B83F8001F73
:10180000F2E700BF6C1300206C230020C0B2014B34
:10181000195470477833002070B50446A0F5005382
:10182000072B40D8DFE803F00409190D3F111524F8
:101830001F4B93F90040204670BD1E4B93F90040AA
:10184000F9E71D4B93F90040F5E71C4B93F9004075
:10185000F1E71B4B93F90040EDE71A4890F900407F
:1018600007220021FFF754FF174B00221A70E2E70E
:10187000134BB3F9005002210D4B93F90000FFF711
:1018800043FF70B120232B440D4A1380B4F57C5FD5
:10189000D1DA0E4E96F900402846FFF781FF3070EE
:1018A000C9E70123EFE7FFF741FF0446C3E700BFA5
:1018B0006C3300206D3300206F3300207033002024
:1018C000723300206E330020743300207533002003
:1018D00038B5034642F2070290420CDCB0F5005FD7
:1018E0005BDBA0F50052072A57D8DFE802F00B0EA9
:1018F0005611141C1F3544F2140290424DD10802B7
:10190000002447E0274B197038BD274B1970FBE7BF
:10191000264B1970F8E7254B1878013040B2187043
:10192000FFF774FFF0E7224B1970EDE7214B93F9B5
:1019300000305BB9CAB2120202F47C521E490A801E
:10194000B3FA83F35B091B4A1370DDE7CAB21A4985
:10195000088802430A80F3E7174BB3F90000FFF74A
:1019600035FF02210F4B93F90000FFF7CDFE28B1A0
:101970002023114A11880B441380C5E70123F8E79F
:10198000451C2DB2FFF748FF014660B2FFF73EFF4E
:1019900001342846FF2CF3DDB6E79BB2074AD15449
:1019A000B2E700BF6C3300206D3300206F3300209E
:1019B000703300207433002072330020640B002049
:1019C000C0B2090289B208437047000010B504464E
:1019D000034B1868421C1A60FFF7A8FE207010BD68
:1019E0008C01002038B5084C2068431C2360FFF7A9
:1019F0009DFE05462068431C2360FFF797FE0146C5
:101A00002846FFF7DDFF38BD8C01002010B50446E5
:101A1000FFF7E8FF50FA84F010BDC9B251FA80F028
:101A200070470000F8B50546114F97F90040C3B262
:101A300053FA84F30F4A92F9004053FA84F42312C4
:101A4000137066B23046FFF79DFE97F9003093EAB7
:101A5000050F05D4634013F0800F07D1002200E08A
:101A60000022054B1A70024B1E70F8BD0122F8E7E8
:101A700064130020671300206A130020F8B50546A0
:101A8000144F97F90040E4B2C3B2E41A124B93F931
:101A90000020002A08BF013C14F47F4F0CBF012234
:101AA00000221A7066B23046FFF76CFE97F90030DC
:101AB00093EA050F05D40020FFF76CFE054B1E705E
:101AC000F8BD634013F0800F01D10020F4E701203E
:101AD000F2E700BF641300206713002010B50B4B22
:101AE00093F90030DBB2C0B2181A0446C0F3C0123A
:101AF000074B1A7040B2FFF73DFE14F47F4F0CBF46
:101B000001220022034B1A7010BD00BF6413002095
:101B1000691300206713002008B5FFF7D9FE0320E2
:101B200008BD000038B5094B1868421C1A60FFF761
:101B3000FDFD0546FFF770FE0446681CFFF76CFECE
:101B400001462046FFF73CFF38BD00BF8C01002056
:101B500038B5C4B22046FFF75FFE0546601CFFF7AC
:101B60005BFE01462846FFF72BFF044B93F900303C
:101B700050FA83F0FFF750FE38BD00BF6613002017
:101B800008B5044B1A78104040B21870FFF7FAFD00
:101B900008BD00BF6413002010B50146054C94F940
:101BA0000030DBB243F48070FFF792FE2378013BF4
:101BB000237010BD0000002010B504460012FFF78E
:101BC000EBFF60B2FFF7E8FF10BD000008B5054B62
:101BD0001878013040B21870C0B240F48070FFF73E
:101BE0001BFE08BD0000002010B5FFF7EFFFC4B2D8
:101BF000FFF7ECFFC0B244EA002010BD144B93F98C
:101C00000030144A92F90000800140EAC31040B24B
:101C100040F02000104B93F9003040EA031040B22E
:101C20000E4B93F9003040EAC30040B20C4B93F9DD
:101C3000003040EA830040B20A4B93F9003040EA9A
:101C4000430040B2084B1B78184340B2704700BFB6
:101C5000691300206A13002002000020681300208E
:101C6000030000206B13002067130020C20F0D4BF0
:101C70001A70C0F380120C4B1A70C0F300120B4B99
:101C80001A70C0F3C0020A4B1A70C0F38002094BED
:101C90001A70C0F34002084B1A7000F00100074BA5
:101CA00018707047691300206A130020020000209A
:101CB00068130020030000206B130020671300202E
:101CC00038B50721104B93F90000FFF71DFD00B94F
:101CD00038BD0E4DB5F90000FFF76EFFFFF78EFF20
:101CE000FFF75AFF0120FFF72FFD4FF6FA70FFF7BD
:101CF00093FDC4B24FF6FB70FFF78EFD000280B279
:101D000004432C60E4E700BF6C3300208C0100200A
:101D10004B4201F0030103F0030358BF5942534201
:101D200002F01F0203F01F0358BF5A420F2A10DCB3
:101D3000012908DDC0F38003C0F3C700400000F0B4
:101D400002001843704700F0010300F0020018433E
:101D50007047012907DDC0F38013000E400000F03A
:101D6000020018437047C0F30013C0F3471040004F
:101D700000F00200184370472DE9F04F85B083460C
:101D8000009101921E4600277CE00BF1070380E0E2
:101D900021464846FFF7B8FC450005F002052146FC
:101DA0005046FFF7B1FC00F00100054304AB2344AB
:101DB00003F8085C013C64B2002CE9DA5846BBF138
:101DC000000F19DB401108EBC00080B2B846002FAD
:101DD00015DB00EBA80000F5707000B2FFF7E0FC27
:101DE0005A463946FFF794FF80464FF47C50FFF780
:101DF000D7FC054600241AE00BF11F00E2E707F1CB
:101E00000308E6E7374B05EB450203EB420033F9E5
:101E100012C004EBC70202EB4202B11806F802C07E
:101E2000B0F902204A70B0F904308B700134072CED
:101E300027DCC4F1070304AA134413F9080C002893
:101E4000E0D04FEA880303F00F0300F003001843CB
:101E500000F57C50FFF7A4FC224B00EB400203EBA3
:101E6000420C33F912E004EBC70202EB4202B11854
:101E700006F802E0BCF902204A70BCF904308B700D
:101E8000D4E701371F2F29DC5B46BBF1000FFFF6BB
:101E90007CAFD810BDF8008008EB401017FA80F036
:101EA00000B2FFF77DFCC0B2019B03EB0010DBF139
:101EB00000020BF0070302F0070258BF534213FA67
:101EC00080F084B200B2FFF76BFC824604F1080098
:101ED00000B2FFF765FC814607246DE705B0BDE859
:101EE000F08F00BF040000202DE9F04F89B080463C
:101EF0000591029322B9082301934FF0000986E06F
:101F000010230193F9E70021FFF7FEFB10B900232E
:101F100005939DE04FF48053059399E021463046A8
:101F2000FFF7F2FB450005F0020521465046FFF79A
:101F3000EBFB00F00100054308AB234403F8085C09
:101F4000013C64B2002CE9DA049E06F003031E464D
:101F5000039B1AEB030F0CD0574B93F90040012160
:101F60002046FFF7D1FB20B102212046FFF7CCFB32
:101F700020B90025CDF80C80B0462DE006220121C5
:101F80004E48FFF7C5FBF4E724B22046FFF708FCF4
:101F90004B4E00EB400036F910200BEB050303EB32
:101FA0004303029901EB030ACA542046FFF7F8FBEA
:101FB00000EB400006EB4000B0F902308AF8013037
:101FC0002046FFF7EDFB00EB400006EB4006B6F9BC
:101FD00004308AF802300135072D11DC002FFAD1C8
:101FE000C5F1070308AA134413F9084C04F00304CD
:101FF00044EA880443F610731C449C42EBD0C3E7C8
:10200000DDF80C80009B002B4FD109F10409B9F1D8
:10201000FF0F4DDC2B4B13F90940E4B209F101022B
:102020009856C5B209F102029E56C6F34017C6F390
:102030008012009209F1030213F902B04445E4DC76
:10204000019B23444345E0DB019B102B3FF45BAF36
:10205000059B03EB0515A8EB04042C4420B2FFF705
:102060009FFB8246083420B2FFF79AFB03900724B7
:102070000496064666E70BEB010202EB4202851866
:102080000BF107035B1A03EB4303C418C65C8654C9
:1020900062786A70A278AA70C6546B786370AB7865
:1020A000A37001310329E6DDAFE700210298F9E7CB
:1020B00009B0BDE8F08F00BF6D3300206E33002003
:1020C000040000207833002070B5ADF5407D044653
:1020D0000321304B93F90000FFF716FBE8B12E4BBC
:1020E00093F9006000213046FFF70EFB05460421FE
:1020F0003046FFF709FB3DB1012D3BD0102D3CD000
:10210000112D3DD0002101E04FF4005101283AD0BB
:1021100000226B462046FFF72FFE04211D4B93F94A
:102120000000FFF7F1FA90B11B4B93F90050032127
:102130002846FFF7E9FA48BB002605212846FFF7A5
:10214000E3FA02466B4631462046FFF7CDFE114BBF
:1021500093F9004003212046FFF7D6FA20B9042165
:102160002046FFF7D1FA10B16846FFF7B3F90DF535
:10217000407D70BD4FF41051C8E74FF42051C5E7C2
:102180004FF43051C2E74FF48052C2E74FF480560B
:10219000D3E700BF6D3300206C33002038B5094B06
:1021A00071221A70074B93F90030002BC1F2428064
:1021B000054B1868421C1A60FFF7B8FAC0B2431FFB
:1021C00004E000BF010000208C010020F42B01F28C
:1021D0002B80DFE813F07503290829082908B702C6
:1021E000A504290829081D07AB072908410129086A
:1021F0002908290829082908290829087C04290808
:10220000290829082908290829082908E301290893
:1022100029082908EC051808490629082908C902CF
:10222000950329088602C307F1062908960529089F
:10223000290829082908290829082908F9039707DE
:10224000290829082908A703290829082305290896
:1022500029082908290866046C0629086B03360634
:102260004E032908E7022908C10629082908290878
:1022700029082908290829082908290829082908D6
:102280002908290829082908290829087B0229087A
:102290002908290829086505290829088A03F50459
:1022A000D9062908C304E9042908290829082908A6
:1022B000290829082908F20729082908F500BD0579
:1022C000290829082908D407850429082908290884
:1022D00029082908DA05F20104022908410229081F
:1022E000DB022908030512018905290811043002BF
:1022F0002908290829084B072908290858059C029C
:102300002B01290829083F03290829086501290804
:102310001E0129080806100576052908B6040501DE
:102320005F03290804033401110329088F011E03E8
:102330002908290829083407290829082908D80460
:1023400029082908890672012F0329085F02290834
:102350002908290829080C073F052908AB02820132
:10236000B301290829081B0637042908BF012908D9
:102370002908290829086D0729082908FD002706CA
:10238000290829082908E3079A06290816022908B6
:1023900029082908290807084C042908EC03CC055A
:1023A0002E07290829086107F0022908C703290810
:1023B0002908290829088207290829082908020468
:1023C0000120FFF7C1F9AA4A1378023B1370E9E62E
:1023D0000020FFF7BFF9A64A1378023B1370E1E62D
:1023E000A44C2046FFF7F2FA94F90000FFF7CAF96F
:1023F0009F4A1378023B1370D4E6FFF7F3FA9D4B24
:1024000093F90010FFF764FA994A1378043B1370AC
:10241000C8E6994C2046FFF7D9FA94F90000FFF777
:10242000B1F9934A1378023B1370BBE6924B1A78CA
:10243000924B1A708E4A1378023B1370B2E6FFF784
:10244000D1FAFFF7E9F98B4B1870FFF79BF9884A2F
:102450001378043B1370A5E6894B1868421C1A6078
:10246000FFF764F9874B93F90030A3B9804B1B78D1
:10247000834A116801F47F420232084400F47F412C
:102480008A4206D002229B1A794A13707C4B18604C
:1024900088E60122F7E7764A1378023B137081E65B
:1024A000794C2046FFF792FA94F90000FFF76AF999
:1024B0006F4A1378023B137074E66F4B93F9000078
:1024C000FFF7A4FAFFF7A8F96A4B1870FFF75AF95B
:1024D000674A1378043B137064E6694B1868421C22
:1024E0001A60FFF723F9FFF7F9FA614A1378023B04
:1024F000137057E6624B1868421C1A60FFF716F912
:10250000624B93F90030A3B1594B1B785C4A1168B8
:1025100001F47F420232084400F47F418A4206D02F
:1025200002229B1A524A1370554B18603AE6012258
:10253000F7E74F4A1378023B137033E64E4B187897
:10254000013840B21870FFF71DF9494A1378023B71
:10255000137027E64A4B1868421C1A60FFF7E6F82A
:102560004B4B93F90030A3B9414B1B78444A116897
:1025700001F47F420232084400F47F418A4206D0CF
:1025800002229B1A3A4A13703D4B18600AE6012258
:10259000F7E7374A1378023B137003E6FFF722FA96
:1025A0000446374D2B68013B18B2FFF705FB2C6042
:1025B0002F4A1378063B1370F4E5314B1868421C20
:1025C0001A60FFF7B3F82B4B93F90010C0B2FFF776
:1025D000A3FAC2B226490B789B1A0B70E2E5284B8E
:1025E0001868421C1A60FFF7A1F8234B93F90010FA
:1025F000C0B2FFF791FAC2B21D490B789B1A0B705B
:10260000D0E51D4B1C781E4B1868421C1A60FFF762
:102610008DF8C3B2E41A64B22046FFF7B3F814F49D
:102620007F4F0CBF01220022184B1A70104A1378FA
:10263000023B1370B6E5FFF775FA134B93F90030C0
:102640000C4A92F9001050FA83F0FFF741F9084A5A
:102650001378063B1370A5E50B4B1878013840B290
:102660001870FFF78FF8024A1378023B137099E550
:1026700001000020641300206513002000000020EA
:102680008C010020691300206613002067130020CE
:102690006B130020AD4B1868421C1A60FFF746F818
:1026A000AB4B93F90030DBB2C0B2181A044640B20B
:1026B000FFF768F814F47F4F0CBF01220022A54BEE
:1026C0001A70A54A1378023B13706BE5FFF78CFA7A
:1026D0009E4B1860013018609F4A1378063B1370B8
:1026E00060E5FFF77FF9FFF797F80446FFF738F842
:1026F000C4F38010FFF74EF8984B1878204040B292
:10270000FFF738F8944A1378043B13704AE5904B6E
:1027100093F90000FFF77AF9904B93F90010FFF757
:10272000FBF98D4A1378053B13703BE5884B18780D
:10273000013040B21870FFF725F8874A1378023B42
:1027400013702FE5814B1868421C1A60FEF7EEFFEC
:10275000824B1A78104340B21870FFF713F87E4A84
:102760001378023B13701DE5784B1868421C1A6001
:10277000FEF7DCFF794B1A78104040B21870FFF773
:1027800001F8754A1378023B13700BE5744B93F90B
:102790000000724B1870FEF7F5FF6F4A1378023B8A
:1027A0001370FFE4FFF71EF9684B18606A4A13784C
:1027B000033B1370F6E4FFF715F90546FFF72CF815
:1027C000C4B2013464B221462846FFF781F820469E
:1027D000FEF7D8FF604A1378063B1370E2E4FFF778
:1027E00001F9FFF719F85A4B1870FEF7CBFF5A4A58
:1027F0001378043B1370D5E4FFF7F4F8FFF70CF8F7
:10280000574B1870FEF7BEFF534A1378043B137002
:10281000C8E44E4B1868421C1A60FEF787FFFFF7AA
:1028200097F94E4B1870FEF7ADFF4B4A1378053BF6
:102830001370B7E4464B93F90000FFF7E7F8FEF793
:10284000EBFF474B1870FEF79DFF434A1378043B9C
:102850001370A7E4424B93F90000FFF7D7F83F4B02
:1028600093F90010FFF734F83B4A1378053B1370D7
:1028700098E43A4B93F9000000F00101354A1170D9
:10288000C0F346001870FEF77DFF334A1378023B11
:10289000137087E4314B93F90000314B1870FEF749
:1028A00071FF2D4A1378023B13707BE42B4B93F995
:1028B0000000FFF771F9284A1378033B137071E4A5
:1028C000224B1868421C1A60FEF730FFC0B2FEF7B8
:1028D000A3FF224B1A78104340B21870FEF752FF44
:1028E0001D4A1378033B13705CE4FFF76FF91B4B31
:1028F0001870FEF747FF184A1378043B137051E431
:10290000164991F90030134A107840EA430040B26A
:102910000870DB0F1370FEF735FF0F4A1378023B88
:1029200013703FE40E4B93F90000FFF76FF8FEF7CA
:1029300073FF0A4B1A78104040B21870FEF722FF5E
:10294000054A1378043B13702CE400BF8C0100206F
:10295000661300206713002001000020641300208C
:1029600065130020B44B1868421C1A60FEF7DEFEA7
:10297000B24B93F90030A3B1B14B1B78AE4A11684A
:1029800001F47F420232084400F47F418A4206D0BB
:1029900002229B1AAA4A1370A74B186002E4012274
:1029A000F7E7A74A1378023B1370FFF7FBBBA54B71
:1029B0001878013040B21870FEF7E4FEA04A137890
:1029C000023B1370FFF7EEBB9F4B01221A709C4A2B
:1029D0001378023B1370FFF7E5BB9C4B93F90000A3
:1029E000FFF714F8FEF718FFFFF748F8944A13783A
:1029F000043B1370FFF7D6BB8F4B1868421C1A605C
:102A0000FEF794FE904B93F90030ABB98C4B1B78DA
:102A1000894A116801F47F420232084400F47F4180
:102A20008A4207D002229B1A854A1370824B186093
:102A3000FFF7B8BB0122F6E7814A1378023B137017
:102A4000FFF7B0BBFEF7CEFF0546FEF7E5FEC4B2CA
:102A5000013C64B221462846FEF73AFF2046FEF7C5
:102A600091FE774A1378063B1370FFF79BBB724BBE
:102A70001868421C1A60FEF759FEC5B22846FEF7D8
:102A8000CBFEC4B2013464B221462846FEF720FFD3
:102A90002046FEF777FE6A4A1378053B1370FFF76E
:102AA00081BB654B1868421C1A60FEF73FFEC0B23E
:102AB000FEF7B2FE664B1A78504040B21870FEF72F
:102AC00061FE5F4A1378033B1370FFF76BBB5E4BED
:102AD00000221A705A4A1378023B1370FFF762BB48
:102AE000584B93F90000FEF791FF0546FEF794FE60
:102AF000C0F34604544A92F90030DB015BB21C4338
:102B000000F0010313702046FEF73CFE21462846E4
:102B1000FEF7DEFE4A4A1378073B1370FFF742BB0D
:102B20004B4A92F90030D80F474908705B0058B201
:102B30001070FEF727FE424A1378023B1370FFF72E
:102B400031BB434B93F90000404B1870FEF71AFE5F
:102B50003B4A1378023B1370FFF724BBFEF742FF9A
:102B60000546FEF759FE0446681CFEF755FE014671
:102B70002046FEF725FF304B1860314A1378053B9D
:102B80001370FFF70FBB314B93F90000FEF73EFFC8
:102B9000FEF742FE2E4B1870FEF7F4FD284A13781C
:102BA000043B1370FFF7FEBAFEF71CFFFEF734FE7E
:102BB000FEF738FF224A1378043B1370FFF7F2BA8E
:102BC0001D4B1868421C1A60FEF7B0FDFEF72AFF85
:102BD0001B4A1378023B1370FFF7E4BAFEF702FFBB
:102BE0001A4B93F90010FEF773FE154A1378043B55
:102BF0001370FFF7D7BA104B1868421C1A60FEF723
:102C000095FDC0B2FEF708FE114B1870FEF7BAFD35
:102C10000B4A1378033B1370FFF7C4BAFEF7D6FFD5
:102C2000FFF724F8FEF7E0FF034B1860044A13781F
:102C3000063B1370FFF7B6BA8C0100206B1300201F
:102C40000100002065130020671300206613002098
:102C500064130020B94B1868421C1A60FEF766FD29
:102C60000546FEF7D9FDC4B2013C64B221462846B0
:102C7000FEF72EFE2046FEF785FDB14A1378053B90
:102C80001370FFF78FBAAF4B93F90000AE4B18707B
:102C9000FEF778FDAA4A1378023B1370FFF782BA59
:102CA000A64B1868421C1A60FEF740FDC0B2FEF742
:102CB000B3FDFEF7B7FEA24A1378033B1370FFF78C
:102CC00071BA9E4B1868421C1A60FEF72FFDC0B205
:102CD000FEF7A2FD9D4B1870FEF754FD984A13783D
:102CE000033B1370FFF75EBAFEF77CFE974B93F938
:102CF0000010FEF7EDFD924A1378043B1370FFF7C6
:102D000051BA8E4B1868421C1A60FEF70FFD904BAB
:102D100093F90030012B05D0894A1378023B1370D8
:102D2000FFF740BA864B1B78844A116801F47F4252
:102D30000232084400F47F418A4207D002229B1AE3
:102D40007F4A13707D4B1860FFF72CBA0122F6E71B
:102D50007C4B93F90000FEF759FEFEF75DFDFEF790
:102D600061FE774A1378043B1370FFF71BBA734B6D
:102D70001868421C1A60FEF7D9FCFEF77FFE704A05
:102D80001378023B1370FFF70DBA6C4B1868421CA6
:102D90001A60FEF7CBFC6B4B93F90010C0B2FEF744
:102DA00097FD674A1378033B1370FFF7FBB9634B3A
:102DB0001868421C1A60FEF7B9FCC0B2FEF72CFD81
:102DC0000446FEF7CDFCC4F38010FEF7E3FC5E4B37
:102DD0001878204040B2FEF7CDFC594A1378033BE7
:102DE0001370FFF7DFB9554B1868421C1A60FEF7E5
:102DF0009DFCC0B2FEF710FD524B1870FEF7C2FCEE
:102E00004F4A1378033B1370FFF7CCB9FEF7EAFD86
:102E1000FEF702FDFEF762FE494A1378043B137089
:102E2000FFF7C0B9474B93F90000FEF7EFFDFEF73F
:102E3000F3FCFEF753FE424A1378043B1370FFF78E
:102E4000B1B93E4B1868421C1A60FEF76FFC3E4B4E
:102E50001A78504040B21870FEF794FC384A137844
:102E6000023B1370FFF79EB9344D2868431C2B605A
:102E7000FEF75CFCC0B2FEF7CFFC440064B2354BF9
:102E800093F900201443C0F3C01018702046FEF7D9
:102E900079FC28680138FEF749FC2146C0B2FEF7EC
:102EA00017FD274A1378053B1370FFF77BB9234BB7
:102EB0001868421C1A60FEF739FC0446C0B2FEF7DF
:102EC000ABFCC0F3460500F00103224A137028460C
:102ED000FEF758FC29462046FEF7FAFC184A1378FC
:102EE000053B1370FFF75EB9184B93F90000FEF72E
:102EF0008DFDFEF791FC134B1870FEF743FC104A52
:102F00001378043B1370FFF74DB9104B93F9000091
:102F1000FEF77CFD0546FEF77FFCC4B2013C64B2BF
:102F200021462846FEF7D4FC2046FEF72BFC044A37
:102F30001378073B1370FFF735B900BF8C010020F1
:102F40000100002066130020641300206513002098
:102F50006913002067130020FEF744FD0546FEF7C5
:102F60005BFC00F00102B44B1A70C0F3460420462B
:102F7000FEF708FC21462846FEF7AAFCAF4A137864
:102F8000063B1370FFF70EB9AD4D95F90020C2F363
:102F90004604A94991F90030DB015BB21C4302F001
:102FA00001020A702046FEF7EDFB2C70A34A13784D
:102FB000023B1370FFF7F6B8FEF714FD0546FEF767
:102FC0002BFC440064B29C4A92F900301C43C0F3CD
:102FD000C01313702046FEF7D5FB21462846FEF7A6
:102FE00077FC964A1378063B1370FFF7DBB8954BD6
:102FF0001868421C1A60FEF799FBC0B2FEF70CFC81
:10300000FEF76CFD8D4A1378033B1370FFF7CAB8C7
:10301000FEF7E8FCFEF700FC894B1A78104340B23B
:103020001870FEF7AFFB854A1378023B1370FFF769
:10303000B9B8824A1378023B1370FFF7B3B8814BDB
:103040001868421C1A60FEF771FB7F4B93F9001061
:10305000FEF7E3FCFEF7E0FB794B1870FEF792FBFE
:10306000764A1378043B1370FFF79CB8754B1868C9
:10307000421C1A60FEF75AFB734B93F90010FEF7DF
:10308000CCFC6F4B93F90010FEF722FC6B4A1378CF
:10309000043B1370FFF786B8FEF7A4FCFEF7BCFBF9
:1030A000FEF7ECFC654A1378043B1370FFF77AB81F
:1030B000644B1868421C1A60FEF738FB624B93F9A8
:1030C0000010FEF7AAFCFEF7A7FBFEF707FD5B4A20
:1030D0001378043B1370FFF765B85A4B1868421C0D
:1030E0001A60FEF723FB584B93F90010FEF795FC8E
:1030F000FEF792FBFEF7C2FC504A1378043B1370B4
:10310000FFF750B8514B93F90000FEF77FFCFEF734
:1031100083FB4B4B1A78104040B21870FEF732FB1D
:10312000464A1378043B1370FFF73CB8FEF75AFC8D
:103130000546FEF771FBC0F3C0123F4B1A70440006
:1031400064B22046FEF71EFB21462846FEF7C0FB70
:103150003A4A1378063B1370FFF724B8FEF742FC97
:10316000FEF75AFB364B1A78104040B21870FEF743
:1031700009FB324A1378043B1370FFF713B8324B44
:1031800093F90000FEF742FCFEF746FBFEF74AFC0F
:103190002A4A1378043B1370FFF704B82A4B93F9BB
:1031A0000000FEF733FCFEF737FBFEF797FC234ADF
:1031B0001378023B1370FEF7F5BF224B1868421CD0
:1031C0001A60FEF7B3FA204B93F90010FEF725FCC6
:1031D000FEF722FBFEF726FC184A1378023B137019
:1031E000FEF7E0BF174B1868421C1A60FEF79EFA04
:1031F000C0B2FEF711FBFEF741FC104A1378033B07
:103200001370FEF7CFBF0F4B1868421C1A60FEF711
:103210008DFAC0B2FEF700FBFEF7B2FC074A137846
:10322000033B1370FEF7BEBF0146094801F044FF9F
:10323000FEF7B8BF38BD00BF6713002001000020B3
:10324000641300208C010020651300206613002009
:10325000A8A90008F8B500AF254C20786678F6B22A
:10326000A578EDB201F03CFF304601F039FF294668
:10327000204801F021FF2179627989031E4B1960F2
:1032800052031E4801F018FFF02340F21D120021E6
:103290001E20FDF76FFF27E0FEF780FF2046FEF7B8
:1032A00013FF0134EF2CF7DD072201211448FEF74C
:1032B0002FFAFEF705FDF22402E0FEF76FFF01345E
:1032C000B4F5837F0FDA40F205139C42F5D10C4D23
:1032D000062200212846FEF71BFA07220021284675
:1032E000FEF716FAE9E7B5466E460024DAE700BFB6
:1032F00000000208B8A9000878340020BCA9000822
:103300006E33002072B6FEE700B583B08DF807007B
:103310004FF6FF7301220DF10701034801F033F965
:1033200003B05DF804FB00BFDC34002000B583B0BF
:10333000030A43EA0020ADF806004FF6FF730222AD
:103340000DF10601024801F01EF903B05DF804FB1F
:10335000DC34002008B50D480D4B03604FF4827338
:10336000436000238360C360036143614FF40072D4
:103370008261C3610362436283620A23C36201F014
:10338000A3F800B908BDFFF7BDFF00BFDC34002083
:103390000038004082B0002100910B4B5A6C42F47F
:1033A00080425A645A6C02F480420092009A019161
:1033B0001A6C42F080521A641B6C03F08053019324
:1033C000019B02B0704700BF0038024030B58BB09F
:1033D0000023059306930793089309930368354ADE
:1033E000934205D00446344A934224D00BB030BDFA
:1033F00000210191314B5A6C42F480525A645A6C4C
:1034000002F480520192019A02911A6B42F0010279
:103410001A631B6B03F001030293029BE0230593E5
:1034200002230693032308930523099305A924483F
:1034300000F0A2FBDAE700250395204B1A6C42F45A
:1034400080421A641A6C02F480420392039A049533
:103450001A6B42F002021A631B6B03F0020304931F
:10346000049B4FF40443059302230693032308931C
:103470000523099305A9134800F07EFB1248134B5E
:103480000360456040238360C5604FF4806303613F
:1034900045618561C5614FF480330362456200F088
:1034A00017FA18B9084BA3649C639FE7FEF7B8F8B6
:1034B000F8E700BF0030014000380040003802400B
:1034C00000000240000402407C3400207060024092
:1034D00000B589B0002303930493059306930793E3
:1034E0000268154B9A4202D009B05DF804FB002136
:1034F000019103F592335A6C42F020025A645A6CDF
:1035000002F020020192019A02911A6B42F001022C
:103510001A631B6B03F001030293029B4FF4C05329
:10352000039302230493032306930823079303A919
:10353000024800F021FBD7E70014014000000240E0
:10354000FEE7FEE7FEE7FEE7FEE7704770477047DD
:1035500008B500F0C3F808BD08B5024800F01EFA2F
:1035600008BD00BF7C3400200120704708B501F081
:103570006BFA162303604FF0FF3008BD08B54FF01B
:10358000FF31FFF7F3FFFEE770B50C461646002546
:1035900006E0AFF30080214601F8010B01350C462F
:1035A000B542F6DB304670BD08B503460B4A1268DB
:1035B00042B10A4A106803446A46934206D8074A51
:1035C000136008BD054A06491160F2E701F03CFAB4
:1035D0000C2303604FF0FF30F3E700BF34350020C9
:1035E000C83500204FF0FF3070474FF400534B6058
:1035F000002070470120704700207047704772B666
:10360000FEE7000008B50A480A4B03604FF4612347
:10361000436000238360C36003610C2242618361C5
:10362000C36101F04BF900B908BDFFF7E8FF00BF27
:10363000383500200014014000B583B08DF8070034
:103640004FF6FF7301220DF10701034801F065F900
:1036500003B05DF804FB00BF3835002010B5044608
:103660000E4B18784FF47A73B3FBF0F30C4A1068E2
:10367000B0FBF3F000F0B0F868B90F2C01D90120CD
:103680000AE0002221464FF0FF3000F05FF8054BC2
:103690001C60002000E0012010BD00BF940100204C
:1036A000900100209801002008B50B4B1A6842F4E5
:1036B00000721A601A6842F480621A601A6842F452
:1036C00080721A60032000F02FF80020FFF7C6FF79
:1036D000FFF760FE002008BD003C0240034A11686D
:1036E000034B1B780B441360704700BF7C350020F0
:1036F00094010020014B1868704700BF7C35002002
:1037000038B50446FFF7F6FF0546B4F1FF3F02D097
:10371000044B1B781C44FFF7EDFF401BA042FAD37B
:1037200038BD00BF94010020074AD36823F4E0634A
:103730001B041B0C000200F4E060034343F0BF6372
:1037400043F40033D360704700ED00E000B5194B3F
:10375000DB68C3F30223C3F1070CBCF1040F28BFDD
:103760004FF0040C03F1040EBEF1060F18D9033B11
:103770004FF0FF3E0EFA0CFC21EA0C0199400EFAC4
:1037800003F322EA0303194300280BDB0901C9B242
:1037900000F1604000F5614080F800135DF804FB23
:1037A0000023E5E700F00F000901C9B2024B1954EC
:1037B000F4E700BF00ED00E014ED00E0002807DBB7
:1037C00000F01F02400901239340024A42F82030D2
:1037D000704700BF00E100E00138B0F1807F0BD2FC
:1037E0004FF0E0235861054AF02182F823100020B1
:1037F000986107221A6170470120704700ED00E0D0
:1038000010B40368D9B210390B4AA2FB0142120965
:103810000A4CA25CC2655F2908D923F47F7323F0A8
:10382000030304338365806D10BC704723F47F73FA
:1038300023F003038365F6E7ABAAAAAAF8A9000858
:10384000836A826992B9012B0AD0022B02D00BB194
:1038500000207047C36A13F0807F28D10020704792
:10386000C36AB3F1C07F24D000207047B2F5005F77
:1038700009D0022B25D9032B25D1C36A13F0807FF1
:1038800023D100207047032B03D8DFE803F0140492
:10389000140A00207047C36A13F0807F0DD1002006
:1038A0007047C36AB3F1C07F09D000207047012080
:1038B00070470120704701207047012070470120A8
:1038C00070470120704700207047012070470000BA
:1038D00070B50446FFF70EFF002C5BD005460023B1
:1038E00084F83430022384F835302268136823F0DA
:1038F0000103136023681A6812F0010F0AD0FFF762
:10390000F9FE431B052BF5D920236365032084F8BA
:10391000350070BD1A68204810406168A2680A43EB
:10392000E1680A4321690A4361690A43A1690A43BC
:10393000E1690A43216A0A430243616A04291ED0ED
:103940001A602668756925F00705636A1D43042B14
:1039500007D1A36A1D43E36A1BB12046FFF770FF3E
:1039600090B975612046FFF74BFFE26D3F2393400E
:10397000836000206065012384F83530C9E7E16A7F
:10398000206B01430A43DBE740236365012084F891
:103990003500BEE70120BCE73F8010F0F0B583B0F2
:1039A000044600230193724B1D68724BA3FB05353F
:1039B000AD0A876D3E68C26D08239340334210D034
:1039C00003681A6812F0040F0BD01A6822F0040280
:1039D0001A60C26D08239340BB60436D43F001033E
:1039E0004365E26D01239340334209D02268526956
:1039F00012F0800F04D0BB60636D43F00203636577
:103A0000E26D04239340334209D02268126812F019
:103A1000020F04D0BB60636D43F004036365E26D85
:103A200010239340334224D02268126812F0080F0A
:103A30001FD0BB6023681A6812F4802F0DD01B685A
:103A400013F4002F04D1236C9BB12046984710E05B
:103A5000A36C73B1204698470BE01A6812F4807F7C
:103A600003D11A6822F008021A60236C0BB12046B9
:103A70009847E26D20239340334255D02268126864
:103A800012F0100F50D0BB6094F83530DBB2052B2C
:103A90000ED023681A6812F4802F33D01B6813F4F9
:103AA000002F2AD1636C002B3ED0204698473BE084
:103AB0002268136823F0160313602268536923F009
:103AC00080035361236CA3B12268136823F00803B9
:103AD0001360E26D3F239340BB60002384F83430D1
:103AE000012384F83530236D002B3FD020469847C2
:103AF0003CE0A36C002BE7D1EBE7E36BA3B12046DE
:103B0000984711E01A6812F4807F09D11A6822F0F0
:103B100010021A60002384F83430012384F8353011
:103B2000E36B0BB120469847636DFBB1636D13F0F7
:103B3000010F17D0052384F835302268136823F06D
:103B400001031360019B01330193AB4204D8236846
:103B50001B6813F0010FF5D1002384F834300123E2
:103B600084F83530E36C0BB12046984703B0F0BDC4
:103B700090010020B5814E1B00230F2B00F2D28054
:103B800070B582B060E085685E000324B44025EA29
:103B90000405CC68B4402C438460456825EA0205DE
:103BA0004C68C4F300129A402A4342605AE0DC0891
:103BB000083450F8246003F0070295000F22AA4051
:103BC00026EA020E0A69AA4042EA0E0240F82420C0
:103BD0005CE0042200E0002202FA0EF22A430234E2
:103BE000514D45F82420514A14686FEA0C0224EA2A
:103BF0000C054E6816F4803F01D04CEA04054B4C8E
:103C00002560646802EA04054E6816F4003F01D09E
:103C10004CEA0405454C6560A46802EA04054E6858
:103C200016F4801F01D04CEA0405404CA560E468FE
:103C300022404D6815F4001F01D04CEA04023B4CB1
:103C4000E26001330F2B6BD801229A400C6804EA22
:103C5000020C32EA0404F4D14C6804F00304013C81
:103C6000012C90D94A6802F00302032A09D0C468E3
:103C70005D000322AA4024EA02048A68AA40224383
:103C8000C2604A6802F00302022A90D004684FEA38
:103C9000430E032202FA0EF224EA02044A6802F0FA
:103CA000030202FA0EF2224302604A6812F0805FB9
:103CB000C7D0002201921E4A546C44F480445464DC
:103CC000526C02F480420192019A9C08A51C164A8B
:103CD00052F8255003F003024FEA820E0F2202FA37
:103CE0000EF225EA0205134A90423FF474AF02F542
:103CF000806290420ED002F5806290420CD002F5B4
:103D0000806290420AD002F5806290423FF461AF37
:103D1000072261E701225FE702225DE703225BE7FA
:103D200002B070BD704700BF00380140003C014048
:103D300000380240000002400AB181617047090466
:103D400081617047002800F0E08170B582B00446C0
:103D5000036813F0010F3BD09F4B9B6803F00C03EB
:103D6000042B2CD09C4B9B6803F00C03082B21D018
:103D70006368B3F5803F4FD0B3F5A02F52D0964B78
:103D80001A6822F480321A601A6822F480221A60BB
:103D90006368002B50D0FFF7ADFC05468E4B1B68C7
:103DA00013F4003F14D1FFF7A5FC401B6428F5D99C
:103DB0000320B1E1884B5B6813F4800FD8D0864BA9
:103DC0001B6813F4003F03D06368002B00F09F8151
:103DD000236813F0020F54D07F4B9B6813F00C0F35
:103DE0003ED07D4B9B6803F00C03082B33D0E36877
:103DF000002B68D0794B01221A60FFF77BFC054647
:103E0000754B1B6813F0020F54D1FFF773FC401B76
:103E10000228F5D903207FE16F4A136843F4803309
:103E20001360B5E76C4B1A6842F480221A601A6876
:103E300042F480321A60ABE7FFF75CFC0546664B44
:103E40001B6813F4003FC3D0FFF754FC401B6428E9
:103E5000F5D9032060E1604B5B6813F4800FC6D195
:103E60005D4B1B6813F0020F03D0E368012B40F099
:103E70005081594A136823F0F803216943EAC103CA
:103E80001360236813F0080F42D063696BB3534B80
:103E90000122C3F8802EFFF72DFC05464E4B5B6FC9
:103EA00013F0020F34D1FFF725FC401B0228F5D98F
:103EB000032031E1484A136823F0F803216943EAFB
:103EC000C1031360DDE7454B00221A60FFF712FCC7
:103ED0000546414B1B6813F0020FD2D0FFF70AFCD6
:103EE000401B0228F5D9032016E13C4B0022C3F801
:103EF000802EFFF7FFFB0546374B5B6F13F0020F79
:103F000006D0FFF7F7FB401B0228F5D9032003E199
:103F1000236813F0040F77D02F4B1B6C13F0805FD6
:103F200033D1002301932C4B1A6C42F080521A6457
:103F30001B6C03F080530193019B0125284B1B68E8
:103F400013F4807F23D0A368012B34D0052B38D005
:103F5000214B1A6F22F001021A671A6F22F0040235
:103F60001A67A368002B3DD0FFF7C4FB06461A4B27
:103F70001B6F13F0020F46D1FFF7BCFB801B41F211
:103F800088339842F3D90320C6E00025D6E7144AC7
:103F9000136843F480731360FFF7ACFB0646104BC5
:103FA0001B6813F4807FCED1FFF7A4FB801B02288F
:103FB000F5D90320B0E0084A136F43F001031367FB
:103FC000CFE7054B1A6F42F004021A671A6F42F0EE
:103FD00001021A67C5E700BF0038024000004742EF
:103FE00000700040FFF786FB0646524B1B6F13F034
:103FF000020F08D0FFF77EFB801B41F28833984206
:10400000F3D9032088E0EDB9A369002B00F0838089
:10401000484A926802F00C02082A51D0022B17D0AD
:10402000454B00221A66FFF765FB0446414B1B68AF
:1040300013F0007F42D0FFF75DFB001B0228F5D98B
:10404000032069E03B4A136C23F080531364DBE7E1
:10405000394B00221A66FFF74DFB0546354B1B68AE
:1040600013F0007F06D0FFF745FB401B0228F5D96F
:10407000032051E0E369226A1343626A43EA821330
:10408000A26A5208013A43EA0243E26A43EA02633F
:10409000284A5360284B01221A66FFF72BFB04467F
:1040A000244B1B6813F0007F06D1FFF723FB001B96
:1040B0000228F5D903202FE000202DE000202BE07E
:1040C000012B2BD01B4B5B6803F48001E26991420A
:1040D00026D103F03F02216A8A4223D1616A47F662
:1040E000C0721A40B2EB811F1ED103F44031A26AA4
:1040F0005208013AB1EB024F18D103F07063E26A43
:10410000B3EB026F14D1002006E0012070470120BC
:1041100002E0012000E0002002B070BD0120FBE7BA
:104120000120F9E70120F7E70120F5E70120F3E797
:104130000120F1E7003802400000474208B5254B56
:104140009B6803F00C03042B3FD0082B3FD1214B7D
:104150005A6802F03F025B6813F4800F12D01D4BC7
:104160005968C1F388111C480023A1FB0001FCF72A
:1041700047F8184B5B68C3F3014301335B00B0FBA6
:10418000F3F025E0134B5968C1F3881C4FEA4C113A
:10419000B1EB0C006EEB0E0E4FEA8E1343EA906308
:1041A0008101091A63EB0E03DB0043EA5173C90076
:1041B00011EB0C0C43F10003990200234FEA8C2011
:1041C00041EA9C51FCF71CF8D3E7034800E00348A0
:1041D00008BD00BF0038024040787D010024F40093
:1041E000002800F09B8070B50D4604464F4B1B68BD
:1041F00003F007038B4208D2CBB24C4A137013680A
:1042000003F007038B4240F08B80236813F0020F0A
:1042100017D013F0040F04D0454A936843F4E053D9
:104220009360236813F0080F04D0414A936843F465
:10423000604393603E4A936823F0F003A1680B4308
:104240009360236813F0010F32D06368012B21D0F3
:104250009A1E012A25D9364A126812F0020F61D03F
:1042600033498A6822F0030213438B60FFF742FA56
:1042700006462F4B9B6803F00C036268B3EB820F7A
:1042800016D0FFF737FA801B41F288339842F0D9F5
:10429000032042E0264A126812F4003FE0D10120D8
:1042A0003BE0234A126812F0007FD9D1012034E0AC
:1042B0001E4B1B6803F00703AB4207D9EAB21B4B46
:1042C0001A701B6803F00703AB422DD1236813F06B
:1042D000040F06D0164A936823F4E053E1680B43B9
:1042E0009360236813F0080F07D0114A936823F4F2
:1042F0006043216943EAC1039360FFF71FFF0C4B42
:104300009B68C3F303130B4AD35CD8400A4B186075
:104310000A4B1868FFF7A2F9002070BD0120704712
:104320000120FAE70120F8E70120F6E7003C02400F
:1043300000380240E0A90008900100209801002008
:10434000014B1868704700BF9001002008B5FFF7C7
:10435000F7FF044B9B68C3F38223034AD35CD84026
:1043600008BD00BF00380240F0A9000808B5FFF7FB
:10437000E7FF044B9B68C3F34233034AD35CD84046
:1043800008BD00BF00380240F0A900082DE9F04741
:1043900082B00546884617461E46FFF7ABF90A9BD2
:1043A0001B1A03EB0609FFF7A5F982462B4B1B6886
:1043B000C3F3CB3309FB03F301932B689C6838EA02
:1043C00004030CBF4FF0010C4FF0000CBC4540D073
:1043D000B6F1FF3FF1D0FFF78DF9A0EB0A00484599
:1043E0000AD2B9F1000F07D0019A02B14A46019BE7
:1043F000013B01939146E0E72A68536823F0E0030C
:1044000053606B68B3F5827F0BD0AB6AB3F5005F86
:1044100014D0012385F85130002385F85030032053
:1044200018E0AB68B3F5004F02D0B3F5806FECD164
:104430002A68136823F040031360E6E72A681368CC
:1044400023F4005313602A68136843F40053136085
:10445000DFE7002002B0BDE8F08700BF9001002038
:1044600010B584B00446164B1868164BA3FB0030F9
:10447000400D4FF47A7303FB00F003906368B3F5CB
:10448000827F0BD0039BBBB1039B013B039323684B
:104490009B6813F0800FF5D100200EE000920B46D0
:1044A000002280212046FFF771FF30B1636D43F099
:1044B00020036365032000E0002004B010BD00BFAE
:1044C00090010020819F5E1600285AD010B5044646
:1044D000436A33B94368B3F5827F05D00023C361D3
:1044E00002E00023036143610023A36294F851308A
:1044F000002B40D0022384F851302268136823F047
:1045000040031360636803F48273A26802F40442F8
:104510001343E26802F400621343226902F00202CC
:104520001343626902F001021343A26902F40072AC
:104530001343E26902F038021343226A02F0800258
:104540001343A26A02F40052216813430B60638B89
:1045500003F00403626A02F01002216813434B6007
:104560002268D36923F40063D361002060650123CE
:1045700084F8513010BD84F850302046FEF726FFF5
:10458000B8E7012070472DE9F04383B01D4690F84D
:104590005030012B00F0D18004468846914601231B
:1045A00080F85030FFF7A6F8074694F85160F6B24D
:1045B000012E40F0AF80B8F1000F00F0AC80B9F1EF
:1045C000000F00F0A880032384F8513000236365B6
:1045D000C4F83080A4F83490A4F83690A363A3877D
:1045E000E38763642364A368B3F5004F1ED0236898
:1045F0001A6812F0400F03D11A6842F040021A60A4
:10460000E368B3F5006F1CD0636813B1B9F1010F13
:1046100052D1226B236812781A73236B0133236300
:10462000E38E9BB2013B9BB2E38645E022681368B0
:1046300023F0400313602268136843F4804313603F
:10464000D5E7636813B1B9F1010F16D1226B236866
:104650001288DA60236B02332363E38E9BB2013B43
:104660009BB2E38609E0FFF745F8C01BA84202D3DE
:10467000B5F1FF3F59D1002D59D0E38E9BB2002BED
:1046800033D023689A6812F0020FECD0226B1288A4
:10469000DA60236B02332363E38E9BB2013B9BB250
:1046A000E386EAE7FFF726F8C01BA84202D3B5F17C
:1046B000FF3F3ED1002D3ED0E38E9BB2ABB12368CD
:1046C0009A6812F0020FEDD0226B12781A73236BE6
:1046D00001332363B4F836C01FFA8CFC0CF1FF3CA5
:1046E0001FFA8CFCA4F836C0E6E73A462946204675
:1046F000FFF7B6FE08B120236365A36833B90193C1
:104700002368DA6801929B680193019B636D13B97A
:10471000002600E00226012384F85130002384F8AB
:104720005030304603B0BDE8F0830326F3E703269C
:10473000F1E70326EFE70326EDE70226F1E70000A5
:1047400038B504460268136923F44053C1680B432B
:10475000136183680269134342691343C2691A43B0
:104760000168CB6823F4164323F00C031343CB609A
:104770000268536923F4407381690B4353610368F2
:10478000314A934206D002F58062934202D0FFF78D
:10479000DDFD01E0FFF7EAFDE369B3F5004F29D045
:1047A0000021031849411B1841F10001C90041EAE9
:1047B0005371DB00181863684FEA83024FEA937362
:1047C00041F10001FBF71CFD204DA5FB0032510912
:1047D000642303FB11031B013233A5FB03235B0995
:1047E00003F0F00202EB011203F00F0321681344FF
:1047F0008B6038BD0023021843EB0301121841F10E
:104800000001C90041EA5271D200101841F10001C3
:10481000626892185B41FBF7F3FC0C4DA5FB00327C
:104820005109642303FB1103DB003233A5FB03238F
:104830005B095A0002F4F87202EB011203F007035D
:10484000216813448B60D4E7001001401F85EB51B1
:104850002DE9F84305460F4616469946DDF82080B7
:104860002C68246837EA04030CBF4FF0010C4FF0AA
:10487000000CB4451FD1B8F1FF3FF1D0B8F1000FE3
:1048800005D0FEF737FFA0EB09004045E8D92A68BC
:10489000D36823F4D073D3602A68536923F00103EB
:1048A0005361202385F83D3085F83E30002385F89C
:1048B0003C30032000E00020BDE8F88358B310B579
:1048C000044690F83D300BB3242384F83D30226831
:1048D000D36823F40053D3602046FFF731FF2268EA
:1048E000136923F4904313612268536923F02A0368
:1048F00053612268D36843F40053D36000202064DE
:10490000202384F83D3084F83E3010BD80F83C30E0
:10491000FEF7DEFDD8E7012070472DE9F04182B0B7
:104920001E4690F83D30DBB2202B54D104460D4694
:104930009046002953D0002A53D090F83C30012BE8
:1049400051D0012380F83C3000230364212380F8F8
:104950003D30FEF7CFFE0746A4F82480A4F8268059
:10496000A368B3F5805F05D04FF00008002384F8FA
:104970003C3012E0236913B14FF00008F6E7A84677
:104980000025F3E738F8023B2268C3F308035360BD
:10499000E28C92B2013A92B2E284E38C9BB273B1A0
:1049A00000963B46002280212046FFF751FFE0B9E8
:1049B000002DE7D015F8012B23685A60E8E7009630
:1049C0003B46002240212046FFF742FF78B92023D2
:1049D00084F83D3000E0022002B0BDE8F081012003
:1049E000FAE70120F8E70220F6E70320F4E70320C6
:1049F000F2E70000DFF834D00D480E490E4A0023DC
:104A000002E0D458C4500433C4188C42F9D30B4A82
:104A10000B4C002301E013600432A242FBD3FEF7EB
:104A2000EDFD00F017F8FCF74FFE70470000022084
:104A300000000020480B002014AE0008480B0020A6
:104A4000C8350020FEE70000014B1868704700BF22
:104A50009C01002070B50D4E0D4D761BB61006D092
:104A6000002455F8043B01349847A642F9D1094E79
:104A7000094D761B05F08AFFB61006D0002455F8C4
:104A8000043B01349847A642F9D170BD08AE000836
:104A900008AE000810AE000808AE00082DE9F04F7F
:104AA00001F10B06162E83B0044624D8102900F21B
:104AB000BA8000F0F5FA102618220220B54F3A44C9
:104AC000A2F1080153688B4200F0BA805A68D96895
:104AD00022F003021A449D68E9608D60516841F03C
:104AE00001012046516003F1080500F0DFFA284675
:104AF00003B0BDE8F08F36F0070600F19480B142B4
:104B000000F2918000F0CCFAB6F5FC7FC0F09A81FB
:104B1000730A00F08F80042B00F26F81B30903F158
:104B2000390003F1380CC3009A4F3B44A3F1080548
:104B30005B689D4206D10CE0002980F22781DB688A
:104B40009D4206D05A6822F00302911B0F29F3DD23
:104B500060463D69DFF840C265457CD06A6822F056
:104B60000302931B0F2B00F37B81002BC7E904CCBE
:104B700080F26C81B2F5007F80F01A81D3087968E9
:104B800001334FEA521E012202FA0EF20A4357F88D
:104B900033E0C5F808E007EBC3010839E9607A6043
:104BA00047F83350CEF80C508310012199409142C0
:104BB00057D8114206D120F003004900114200F1FC
:104BC0000400FAD007EBC0094D468646D5F80C80A4
:104BD000454508D11DE1002B80F22481D8F80C80D6
:104BE000454500F01681D8F8042022F00302931BFB
:104BF0000F2BF0DD2046D8E9025408EB060146F001
:104C00000106C8F80460EC60A56043F00104C7E940
:104C10000411C1E902CC4C6048F8023000F046FAB9
:104C200008F1080502E00C2323600025284603B0A4
:104C3000BDE8F08F4FF4007340204FF03F0C73E756
:104C4000D3689A4208BF02307FF440AF3D69DFF875
:104C500048C1654582D17A6883100121994091420B
:104C6000A7D9BD686B6823F003094E4503D8A9EBAB
:104C700006030F2B7ADCDFF824B1494BDBF8002068
:104C80001B680132334405EB090A00F0338103F558
:104C900080530F3323F47F6828F00F0841462046E5
:104CA00000F026FA411C024600F0F380824500F233
:104CB000EE803C4B196841441960084600F04E8173
:104CC000DBF80010019301311BBFA2EB0A0A50442C
:104CD000CBF80020186012F0070B00F01781CBF121
:104CE00008010A44CBF5805190440831A1EB08013A
:104CF000C1F30B0A51462046009200F0F9F9421C1C
:104D0000DDE9002300F04F81801A00EB0A081968E2
:104D1000BA6048F001005144BD425060196000F093
:104D20002981B9F10F0F40F227816868A9F10C0CB5
:104D30002CF0070C00F0010040EA0C0068604FF016
:104D4000050E05EB0C00BCF10F0FC0E901EE00F2FF
:104D5000328150681546144B1A688A4238BF196070
:104D6000124B1A688A4238BF196094E0AA1943F0BE
:104D7000010346F001066E602046BA60536000F001
:104D800095F90835284603B0BDE8F08FD9681A4474
:104D9000A1E600BFC8050020D0050020D0090020F2
:104DA000B035002080350020A8350020AC3500202B
:104DB000B2F5206F4FEA522363D3142B00F2B78071
:104DC00003F15C01C9005B3307EB010E7958AEF1CA
:104DD000080E8E4500F091804B6823F00303934248
:104DE00002D989688E45F7D1D1F80CE07A68C5E917
:104DF000021ECEF80850CD60D6E6142B59D9542B9C
:104E000000F29D80330B03F16F0003F16E0CC300C1
:104E10008AE60EF1010E1EF0030F05F108057FF47E
:104E2000D5AE51E0424445465368D8F80C1043F0E3
:104E30000103536055F8083F2046D9608B6000F0AD
:104E400035F9F3E6F00806F1080237E62A44204671
:104E5000536843F001035360083500F027F9E5E695
:104E6000A919204646F0010643F001046E60C7E927
:104E70000411C1E902CC4C60AB5000F017F90835C1
:104E8000D4E6930903F13901C90038339CE7BD42E8
:104E90005FD0BD68686820F003084645A8EB0603AC
:104EA00002D80F2B3FF762AF204600F0FFF8002535
:104EB000BCE603F15C0003F15B0CC30034E659F877
:104EC00008394B4540F0968010F0030F00F1FF3099
:104ED000F5D17B6823EA01037B60490099423FF6E4
:104EE000C0AE19B9BDE649000EF1040E1942FAD060
:104EF000704667E603F11008D0E69A104FF00108FB
:104F00007B6808FA02F21A437A6070E702EB080144
:104F10004942C1F30B0A51462046009200F0E8F8DE
:104F2000431CDDE900237FF4EFAEDA46EFE6542BB5
:104F300025D8130B03F16F01C9006E3344E7B3F5B5
:104F4000AA7F25D8F30B03F1780003F1770CC30097
:104F5000EAE5294B186840441860B1E6CAF30B0C27
:104F6000BCF1000F7FF4ACAEBD68C84448F001004E
:104F70006860F0E61546EEE60123536094E7B3F56A
:104F8000AA7F23D8D30B03F17801C90077331BE73D
:104F900040F25452934223D8B30C03F17D0003F145
:104FA0007C0CC300C0E5ABF1080BD844A8EB0208A9
:104FB0004FF0000AABE605F108012046009303F02C
:104FC0007DF8BD68009B68681968C4E640F25451DA
:104FD0008B420BD8930C03F17D01C9007C33F3E6BF
:104FE0004FF47E737F204FF07E0C9DE54FF47E7171
:104FF0007E23E9E67B6870E780350020830730B5C3
:1050000048D0541E002A3FD0CAB2034601E0013CFA
:105010003AD303F8012B9D07F9D1032C2DD9CDB23A
:1050200045EA05250F2C45EA054536D9A4F11002BD
:1050300022F00F0C03F1200EE6444FEA121C03F19C
:10504000100242E9045542E9025510327245F8D186
:105050000CF1010214F00C0F03EB021204F00F0C20
:1050600013D0ACF1040323F003030433134442F8D8
:10507000045B9342FBD10CF003042CB1CAB21C4474
:1050800003F8012B9C42FBD130BD64461346002C33
:10509000F4D1F9E703461446BFE71A46A446E0E711
:1050A000014803F03DB900BFB8350020014803F0C6
:1050B00039B900BFB83500200FB400B5074983B037
:1050C00004AB086853F8042B8168019300F022F8C0
:1050D00003B05DF804EB04B0704700BF9C010020F2
:1050E000024B01461868826803F038BD9C0100201D
:1050F00038B5074D0022044608462A60FEF754FAE8
:10510000431C00D038BD2B68002BFBD0236038BD7A
:10511000C43500202DE9F04FD5B01C4607919146CB
:105120000546099003F0F4F80268179210460E94B1
:10513000FBF7E6FA16901DB1AB6B002B00F02A824C
:10514000079A536EDD0740F13881B2F90C2091B215
:105150008F0409D4079B42F400529A8191B21A46F7
:105160005B6E23F4005353660E0740F1CB80079B20
:105170001B69002B00F0C68001F01A030A2B00F017
:10518000CF8000242BAB4D46CDE92944CDE919440D
:10519000CDE91B44129428939846189400230B944D
:1051A0000024CDE914342B78002B00F09D81AA4611
:1051B00004E01AF8013F002B00F0C780252BF8D13E
:1051C000BAEB050640F0C5809AF80030002B00F0DD
:1051D0008B8100234FF0FF329AF801608DF8833005
:1051E0000A930AF1010A08921F462B244FF0200966
:1051F0000AF1010AA6F120035A2B00F2ED80DFE844
:1052000013F0EB02EB00EB00E602EB00EB00EB002F
:105210006A00EB00EB005C028002EB0067028A028E
:10522000EB0085025B005B005B005B005B005B00EA
:105230005B005B005B00EB00EB00EB00EB00EB00C6
:10524000EB00EB007A01EB00F801D2017A017A0160
:105250007A01EB00EB00EB00EB00E102EB00EB006E
:105260002D02EB00EB00EB000202EB00A402EB00CE
:10527000EB008307EB00EB00EB00EB00EB00EB0037
:10528000EB00EB007A01EB00F801D4017A017A011E
:105290007A01C702D401CD01EB00D402EB006C020D
:1052A0002F02B502CD01EB0002027E008007EB0069
:1052B000EB006107EB007E00A6F1300300221AF834
:1052C000016B02EB820203EB4202A6F13003092BD1
:1052D000F5D90A928EE7DDF824B0584603F018F8A5
:1052E00043681B931846FBF70BFA1C90064658467A
:1052F00003F00EF883681993002E40F0CD869AF8DB
:10530000006075E7079D0998294601F0ADFC00286B
:1053100041F01C83A98901F01A030A2B7FF431AFF5
:10532000079AB2F90E30002BFFF62BAF536ED80759
:1053300002D4890541F13B810799099823464A46E1
:1053400055B0BDE8F04F01F04FBCBAEB050600F0D8
:10535000CB802A9B33442A93299B0133072BC8E92E
:105360000056299305DC08F108080B9B33440B9386
:105370002AE70799099828AA03F016FD80B90DF1CC
:10538000AC08F2E70799099828AA03F00DFD002858
:1053900000F09B800D9B1BB10998194602F08EFE10
:1053A000079A536ED90740F1EA8093895B0601F1B1
:1053B000D9820B9855B0BDE8F08F079BB3F90C204C
:1053C000900591B23FF5C4AE1D46986D02F0A8FF5E
:1053D000B5F90C2091B2BBE6002E00F085800022CA
:1053E0008DF8EC608DF883200123CDE90C32069313
:1053F00008920F92139210923BAD17F0020302D065
:1054000006990231069117F0840B07D10A99069884
:10541000A1EB0009B9F1000F00F370832A9C8AB157
:10542000299A0DF1830101320134C8F80010072ACE
:105430004FF001012A942992C8F8041000F3B683B2
:1054400008F1080883B1299B21AA01330234C8F866
:105450000020072B4FF002022A942993C8F8042059
:1054600000F3B28308F10808BBF1800F00F06982F5
:10547000089B0C9AA3EB020BBBF1000F00F3AA826E
:10548000FB0500F100820C9BC8F804301C44299BEA
:10549000C8F800500133072B2A94299300F3228384
:1054A00008F10808780705D50A9B069A9D1A002D71
:1054B00000F39683DDE90A2306998A42ACBF9B1864
:1054C0005B180B93002C7FF45DAF002329930D9B99
:1054D0001BB10D99099802F0F1FD0DF1AC0855468C
:1054E0002B78002B7FF463AE2A9B002B41F0D381F5
:1054F0000023299354E70E9B073323F00702F2E8B9
:105500000234CDE91434DDE9143424F000440E9261
:10551000994618462146B54B4FF0FF32FBF7B4FDD4
:10552000002840F0EF84B14B484621464FF0FF324F
:10553000FBF78CFD002840F0E584DDE91401002232
:105540000023FBF779FD002840F067879DF8832052
:10555000A74DA84B27F080070321472EC8BF1D4643
:1055600000230D9306910C9108930F9313931093BE
:10557000002A3FF442AF069B013306933DE7079BA9
:105580009B899A053FF512AF079CA06D02F0CAFEF9
:10559000A3890BE7099802F099FCD1E59AF800601D
:1055A00047F0200724E647F01007BA060E9B40F1AB
:1055B0003B84073323F007031A465B6852F8084B15
:1055C0000E929946002BC0F24C84089B013300F0E8
:1055D000D88254EA090327F0800B40F0D382089B5D
:1055E000002B40F0D4825F46002308930C9354AD07
:1055F0001DE10E9B002253F8041B8DF883208DF8CB
:10560000EC100E93F0E60E9C089B54F8045B4FF0F0
:1056100000098DF88390002D00F093855A1C00F04E
:1056200051861A4649462846FAF772FF0D9000281F
:1056300001F00E810D9BCDF820905B1B0C930E9416
:1056400023EAE3739DF883200693CDF83490CDF8D8
:105650003C90CDF84C90CDF8409089E747F010078A
:1056600017F0200900F0D2830E9B073323F00703C5
:10567000D3F8049053F8084B0E9327F4806B002363
:1056800000228DF88320089A511C00F0B88054EA5B
:1056900009012BF0800740F0B180002A40F0F68528
:1056A000002BA1D11BF001030C9300F014843023D4
:1056B0008DF84F310DF24F15B9E00E9B53F8042BC6
:1056C0000A92002A80F2DA830A9A0E9352420A92D0
:1056D0009AF8006047F004078AE5BD0600F1D1841E
:1056E000FC0600F1D885780600F1A586B90540F1E1
:1056F000D2850E9B0B9953F8042B0E9311705546CF
:10570000EEE69AF800608DF8834071E59AF8006043
:1057100047F080076CE5524612F8016B2A2E01F023
:105720003F82A6F13003092B924698BF002201F276
:10573000BC801AF8016B02EB820203EB4202A6F175
:105740003003092BF5D9089254E547F0100B1BF0F4
:10575000200900F076830E9B073323F00703D3F86C
:10576000049053F8084B0E93012389E70E9B53F8DE
:10577000044B0E93302378268DF884301E4B1893FB
:1057800047F0020B8DF885604FF00009022377E7A0
:105790009AF80060682E03BF9AF8016047F400771A
:1057A0000AF1010A47F0400722E59AF800606C2EE2
:1057B00003BF9AF8016047F020070AF1010A47F099
:1057C000100715E59AF8006047F0080710E59AF809
:1057D000006047F001070BE59DF88330002B7FF454
:1057E0008EAD9AF800608DF8839001E5FFFFEF7FA2
:1057F00004AA000808AA000814AA0008BB46012B46
:1058000000F0C081022B54AD20D1189A04F00F0390
:105810002409D35C05F8013D44EA09744FEA1919DB
:1058200054EA0903F2D154AB5B1B5F460C93089911
:105830000C989DF8832081424FF00003B8BF0146C9
:105840000D9306910F931393109391E604F00703C1
:10585000E40844EA49744FEAD909303354EA0901AB
:105860002A4605F8013DF1D11BF0010FDBD0302BAA
:10587000D9D03023023A05F8013C54AB9B1A5F465D
:105880000C931546D3E7652E40F3E680DDE914015D
:1058900000220023FBF7C6FB002800F0DC81299BD7
:1058A000BF4AC8F80020013301340122072B2A9493
:1058B0002993C8F8042000F3CC8408F10808229B3F
:1058C000129A934280F2D682169B179A1C44C8E91A
:1058D0000023299B2A940133072B299300F3248466
:1058E00008F10808129B5D1E002D7FF7DBAD102D1F
:1058F000299BDFF8B09240F3BD8449462246B94661
:10590000DDF824B0079C10260F4605E008F10808D2
:10591000103D102D40F3AA8401331032072BC8E943
:105920000076CDE92932F1DD28AA2146584603F058
:105930003BFA00287FF42EADDDE929320DF1AC08E9
:10594000E6E70A9B069AA3EB020BBBF1000F7FF779
:105950008FADBBF1100F299ADFF848922CDD1D9610
:1059600021464E46079CDDF82490102306E0ABF15B
:10597000100BBBF1100F08F108081ADD01321031CD
:10598000072AC8E90063CDE92921F0DD28AA2146CC
:1059900048460DF1AC0803F007FA00287FF4FAAC92
:1059A000ABF1100BBBF1100FDDE929214FF0100313
:1059B000E4DCB1461D9E0C4601325C44072ACDE969
:1059C0002924C8F80090C8F804B000F3A08308F1B7
:1059D00008084DE5BBF1100F299ADFF8C8912DDDBD
:1059E000204641464C46A846DDF82490079D1023EA
:1059F00006E0ABF1100BBBF1100F01F1080119DD4E
:105A000001321030072AC1E90043CDE92920F0DD39
:105A100028AA2946484603F0C7F900287FF4BAAC03
:105A2000ABF1100BBBF1100FDDE929202BA94FF0D2
:105A30001003E5DC4546A1468846044601325C4435
:105A4000072ACDE92924C8F80090C8F804B000F36B
:105A5000D08108F1080813E5129B012B40F38081E7
:105A6000299EC8F80050013601340123072E2A94DC
:105A70002996C8F8043000F37C8308F10808169BC7
:105A8000179A01361C44072EC8E90023CDE9296482
:105A900000F37C8308F10808DDE9140100220023EB
:105AA000FBF7C0FA002840F07881129B0136013BD9
:105AB00001351C44072EC8F800502996C8F8043058
:105AC0002A9400F35D8108F108081A9BC8F8043095
:105AD00001361C44072E24ABCDE92964C8F80030F8
:105AE0007FF7DEAC0799099828AA03F05DF9002832
:105AF0007FF450AC2A9C0DF1AC08D3E4B9F1100F3F
